{
  "_format": "hh-sol-artifact-1",
  "contractName": "LiquidityMigrator",
  "sourceName": "contracts/migrator/LiquidityMigrator.sol",
  "abi": [
    {
      "inputs": [
        {
          "internalType": "address",
          "name": "_router",
          "type": "address"
        },
        {
          "internalType": "address",
          "name": "_pair",
          "type": "address"
        },
        {
          "internalType": "address",
          "name": "_routerFork",
          "type": "address"
        },
        {
          "internalType": "address",
          "name": "_pairFork",
          "type": "address"
        }
      ],
      "stateMutability": "nonpayable",
      "type": "constructor"
    },
    {
      "inputs": [],
      "name": "admin",
      "outputs": [
        {
          "internalType": "address",
          "name": "",
          "type": "address"
        }
      ],
      "stateMutability": "view",
      "type": "function"
    },
    {
      "inputs": [
        {
          "internalType": "uint256",
          "name": "amount",
          "type": "uint256"
        }
      ],
      "name": "deposit",
      "outputs": [],
      "stateMutability": "nonpayable",
      "type": "function"
    },
    {
      "inputs": [],
      "name": "migrate",
      "outputs": [],
      "stateMutability": "nonpayable",
      "type": "function"
    },
    {
      "inputs": [],
      "name": "migrationDone",
      "outputs": [
        {
          "internalType": "bool",
          "name": "",
          "type": "bool"
        }
      ],
      "stateMutability": "view",
      "type": "function"
    },
    {
      "inputs": [],
      "name": "pair",
      "outputs": [
        {
          "internalType": "contract IBitcoinxPair",
          "name": "",
          "type": "address"
        }
      ],
      "stateMutability": "view",
      "type": "function"
    },
    {
      "inputs": [],
      "name": "pairFork",
      "outputs": [
        {
          "internalType": "contract IBitcoinxPair",
          "name": "",
          "type": "address"
        }
      ],
      "stateMutability": "view",
      "type": "function"
    },
    {
      "inputs": [],
      "name": "router",
      "outputs": [
        {
          "internalType": "contract IBitcoinxRouter",
          "name": "",
          "type": "address"
        }
      ],
      "stateMutability": "view",
      "type": "function"
    },
    {
      "inputs": [],
      "name": "routerFork",
      "outputs": [
        {
          "internalType": "contract IBitcoinxRouter",
          "name": "",
          "type": "address"
        }
      ],
      "stateMutability": "view",
      "type": "function"
    }
  ],
  "bytecode": "0x608060405234801561001057600080fd5b5060405161089e38038061089e8339818101604052608081101561003357600080fd5b50805160208201516040830151606090930151600080546001600160a01b039485166001600160a01b0319918216179091556001805493851693821693909317909255600280549484169483169490941790935560038054929093169181169190911790915560048054909116331790556107eb806100b36000396000f3fe608060405234801561001057600080fd5b50600436106100885760003560e01c8063a8aa1b311161005b578063a8aa1b31146100df578063b6b55f25146100e7578063f851a44014610104578063f887ea401461010c57610088565b80630d81a5701461008d57806359201402146100a9578063766faf36146100cd5780638fd3ab80146100d5575b600080fd5b610095610114565b604080519115158252519081900360200190f35b6100b1610124565b604080516001600160a01b039092168252519081900360200190f35b6100b1610133565b6100dd610142565b005b6100b16106a7565b6100dd600480360360208110156100fd57600080fd5b50356106b6565b6100b1610797565b6100b16107a6565b600454600160a01b900460ff1681565b6003546001600160a01b031681565b6002546001600160a01b031681565b6004546001600160a01b0316331461018e576040805162461bcd60e51b815260206004820152600a60248201526937b7363c9030b236b4b760b11b604482015290519081900360640190fd5b600454600160a01b900460ff16156101e6576040805162461bcd60e51b81526020600482015260166024820152756d6967726174696f6e20616c726561647920646f6e6560501b604482015290519081900360640190fd5b60015460408051630dfe168160e01b815290516000926001600160a01b031691630dfe1681916004808301926020929190829003018186803b15801561022b57600080fd5b505afa15801561023f573d6000803e3d6000fd5b505050506040513d602081101561025557600080fd5b50516001546040805163d21220a760e01b815290519293506000926001600160a01b039092169163d21220a791600480820192602092909190829003018186803b1580156102a257600080fd5b505afa1580156102b6573d6000803e3d6000fd5b505050506040513d60208110156102cc57600080fd5b5051600154604080516370a0823160e01b815230600482015290519293506000926001600160a01b03909216916370a0823191602480820192602092909190829003018186803b15801561031f57600080fd5b505afa158015610333573d6000803e3d6000fd5b505050506040513d602081101561034957600080fd5b50516000805460408051635d5155ef60e11b81526001600160a01b03888116600483015287811660248301526044820186905260648201859052608482018590523060a48301524260c483015282519596509092169363baa2abde9360e4808501948390030190829087803b1580156103c157600080fd5b505af11580156103d5573d6000803e3d6000fd5b505050506040513d60408110156103eb57600080fd5b5050604080516370a0823160e01b815230600482015290516000916001600160a01b038616916370a0823191602480820192602092909190829003018186803b15801561043757600080fd5b505afa15801561044b573d6000803e3d6000fd5b505050506040513d602081101561046157600080fd5b5051604080516370a0823160e01b815230600482015290519192506000916001600160a01b038616916370a08231916024808301926020929190829003018186803b1580156104af57600080fd5b505afa1580156104c3573d6000803e3d6000fd5b505050506040513d60208110156104d957600080fd5b50516002546040805163095ea7b360e01b81526001600160a01b0392831660048201526024810186905290519293509087169163095ea7b3916044808201926020929091908290030181600087803b15801561053457600080fd5b505af1158015610548573d6000803e3d6000fd5b505050506040513d602081101561055e57600080fd5b50506002546040805163095ea7b360e01b81526001600160a01b0392831660048201526024810184905290519186169163095ea7b3916044808201926020929091908290030181600087803b1580156105b657600080fd5b505af11580156105ca573d6000803e3d6000fd5b505050506040513d60208110156105e057600080fd5b50506002546040805162e8e33760e81b81526001600160a01b038881166004830152878116602483015260448201869052606482018590526084820186905260a482018590523060c48301524260e48301529151919092169163e8e33700916101048083019260609291908290030181600087803b15801561066157600080fd5b505af1158015610675573d6000803e3d6000fd5b505050506040513d606081101561068b57600080fd5b50506004805460ff60a01b1916600160a01b1790555050505050565b6001546001600160a01b031681565b600454600160a01b900460ff161561070e576040805162461bcd60e51b81526020600482015260166024820152756d6967726174696f6e20616c726561647920646f6e6560501b604482015290519081900360640190fd5b600154604080516323b872dd60e01b81523360048201523060248201526044810184905290516001600160a01b03909216916323b872dd916064808201926020929091908290030181600087803b15801561076857600080fd5b505af115801561077c573d6000803e3d6000fd5b505050506040513d602081101561079257600080fd5b505050565b6004546001600160a01b031681565b6000546001600160a01b03168156fea2646970667358221220be0631658fe42994d7f52214a72c6f69dca89ae9e56ae3640d7ee7013ece297764736f6c63430007040033",
  "linkReferences": {},
  "deployedLinkReferences": {}
}